{
  "_format": "hh-sol-artifact-1",
  "contractName": "ElectionFactory",
  "sourceName": "contracts/ElectionFactory.sol",
  "abi": [
    {
      "inputs": [
        {
          "internalType": "address",
          "name": "_rolesAddress",
          "type": "address"
        }
      ],
      "stateMutability": "nonpayable",
      "type": "constructor"
    },
    {
      "anonymous": false,
      "inputs": [
        {
          "indexed": true,
          "internalType": "uint256",
          "name": "electionId",
          "type": "uint256"
        },
        {
          "indexed": true,
          "internalType": "address",
          "name": "electionAddress",
          "type": "address"
        },
        {
          "indexed": true,
          "internalType": "address",
          "name": "creator",
          "type": "address"
        },
        {
          "indexed": false,
          "internalType": "string",
          "name": "name",
          "type": "string"
        },
        {
          "indexed": false,
          "internalType": "uint256",
          "name": "startTime",
          "type": "uint256"
        },
        {
          "indexed": false,
          "internalType": "uint256",
          "name": "endTime",
          "type": "uint256"
        }
      ],
      "name": "ElectionCreated",
      "type": "event"
    },
    {
      "anonymous": false,
      "inputs": [
        {
          "indexed": true,
          "internalType": "uint256",
          "name": "electionId",
          "type": "uint256"
        },
        {
          "indexed": false,
          "internalType": "address",
          "name": "deactivatedBy",
          "type": "address"
        }
      ],
      "name": "ElectionDeactivated",
      "type": "event"
    },
    {
      "inputs": [
        {
          "internalType": "uint256",
          "name": "",
          "type": "uint256"
        }
      ],
      "name": "allElectionIds",
      "outputs": [
        {
          "internalType": "uint256",
          "name": "",
          "type": "uint256"
        }
      ],
      "stateMutability": "view",
      "type": "function"
    },
    {
      "inputs": [
        {
          "internalType": "string",
          "name": "_name",
          "type": "string"
        },
        {
          "internalType": "string",
          "name": "_description",
          "type": "string"
        },
        {
          "internalType": "uint256",
          "name": "_startTime",
          "type": "uint256"
        },
        {
          "internalType": "uint256",
          "name": "_endTime",
          "type": "uint256"
        },
        {
          "internalType": "uint256",
          "name": "_registrationDeadline",
          "type": "uint256"
        }
      ],
      "name": "createElection",
      "outputs": [
        {
          "internalType": "address",
          "name": "electionAddress",
          "type": "address"
        }
      ],
      "stateMutability": "nonpayable",
      "type": "function"
    },
    {
      "inputs": [
        {
          "internalType": "uint256",
          "name": "_electionId",
          "type": "uint256"
        }
      ],
      "name": "deactivateElection",
      "outputs": [],
      "stateMutability": "nonpayable",
      "type": "function"
    },
    {
      "inputs": [
        {
          "internalType": "uint256",
          "name": "",
          "type": "uint256"
        }
      ],
      "name": "elections",
      "outputs": [
        {
          "internalType": "uint256",
          "name": "id",
          "type": "uint256"
        },
        {
          "internalType": "address",
          "name": "electionAddress",
          "type": "address"
        },
        {
          "internalType": "address",
          "name": "creator",
          "type": "address"
        },
        {
          "internalType": "string",
          "name": "name",
          "type": "string"
        },
        {
          "internalType": "string",
          "name": "description",
          "type": "string"
        },
        {
          "internalType": "uint256",
          "name": "startTime",
          "type": "uint256"
        },
        {
          "internalType": "uint256",
          "name": "endTime",
          "type": "uint256"
        },
        {
          "internalType": "uint256",
          "name": "createdAt",
          "type": "uint256"
        },
        {
          "internalType": "bool",
          "name": "isActive",
          "type": "bool"
        }
      ],
      "stateMutability": "view",
      "type": "function"
    },
    {
      "inputs": [],
      "name": "getActiveElections",
      "outputs": [
        {
          "components": [
            {
              "internalType": "uint256",
              "name": "id",
              "type": "uint256"
            },
            {
              "internalType": "address",
              "name": "electionAddress",
              "type": "address"
            },
            {
              "internalType": "address",
              "name": "creator",
              "type": "address"
            },
            {
              "internalType": "string",
              "name": "name",
              "type": "string"
            },
            {
              "internalType": "string",
              "name": "description",
              "type": "string"
            },
            {
              "internalType": "uint256",
              "name": "startTime",
              "type": "uint256"
            },
            {
              "internalType": "uint256",
              "name": "endTime",
              "type": "uint256"
            },
            {
              "internalType": "uint256",
              "name": "createdAt",
              "type": "uint256"
            },
            {
              "internalType": "bool",
              "name": "isActive",
              "type": "bool"
            }
          ],
          "internalType": "struct ElectionFactory.ElectionMetadata[]",
          "name": "",
          "type": "tuple[]"
        }
      ],
      "stateMutability": "view",
      "type": "function"
    },
    {
      "inputs": [],
      "name": "getAllElections",
      "outputs": [
        {
          "components": [
            {
              "internalType": "uint256",
              "name": "id",
              "type": "uint256"
            },
            {
              "internalType": "address",
              "name": "electionAddress",
              "type": "address"
            },
            {
              "internalType": "address",
              "name": "creator",
              "type": "address"
            },
            {
              "internalType": "string",
              "name": "name",
              "type": "string"
            },
            {
              "internalType": "string",
              "name": "description",
              "type": "string"
            },
            {
              "internalType": "uint256",
              "name": "startTime",
              "type": "uint256"
            },
            {
              "internalType": "uint256",
              "name": "endTime",
              "type": "uint256"
            },
            {
              "internalType": "uint256",
              "name": "createdAt",
              "type": "uint256"
            },
            {
              "internalType": "bool",
              "name": "isActive",
              "type": "bool"
            }
          ],
          "internalType": "struct ElectionFactory.ElectionMetadata[]",
          "name": "",
          "type": "tuple[]"
        }
      ],
      "stateMutability": "view",
      "type": "function"
    },
    {
      "inputs": [],
      "name": "getCompletedElections",
      "outputs": [
        {
          "components": [
            {
              "internalType": "uint256",
              "name": "id",
              "type": "uint256"
            },
            {
              "internalType": "address",
              "name": "electionAddress",
              "type": "address"
            },
            {
              "internalType": "address",
              "name": "creator",
              "type": "address"
            },
            {
              "internalType": "string",
              "name": "name",
              "type": "string"
            },
            {
              "internalType": "string",
              "name": "description",
              "type": "string"
            },
            {
              "internalType": "uint256",
              "name": "startTime",
              "type": "uint256"
            },
            {
              "internalType": "uint256",
              "name": "endTime",
              "type": "uint256"
            },
            {
              "internalType": "uint256",
              "name": "createdAt",
              "type": "uint256"
            },
            {
              "internalType": "bool",
              "name": "isActive",
              "type": "bool"
            }
          ],
          "internalType": "struct ElectionFactory.ElectionMetadata[]",
          "name": "",
          "type": "tuple[]"
        }
      ],
      "stateMutability": "view",
      "type": "function"
    },
    {
      "inputs": [
        {
          "internalType": "uint256",
          "name": "_electionId",
          "type": "uint256"
        }
      ],
      "name": "getElection",
      "outputs": [
        {
          "components": [
            {
              "internalType": "uint256",
              "name": "id",
              "type": "uint256"
            },
            {
              "internalType": "address",
              "name": "electionAddress",
              "type": "address"
            },
            {
              "internalType": "address",
              "name": "creator",
              "type": "address"
            },
            {
              "internalType": "string",
              "name": "name",
              "type": "string"
            },
            {
              "internalType": "string",
              "name": "description",
              "type": "string"
            },
            {
              "internalType": "uint256",
              "name": "startTime",
              "type": "uint256"
            },
            {
              "internalType": "uint256",
              "name": "endTime",
              "type": "uint256"
            },
            {
              "internalType": "uint256",
              "name": "createdAt",
              "type": "uint256"
            },
            {
              "internalType": "bool",
              "name": "isActive",
              "type": "bool"
            }
          ],
          "internalType": "struct ElectionFactory.ElectionMetadata",
          "name": "",
          "type": "tuple"
        }
      ],
      "stateMutability": "view",
      "type": "function"
    },
    {
      "inputs": [
        {
          "internalType": "address",
          "name": "_electionAddress",
          "type": "address"
        }
      ],
      "name": "getElectionIdByAddress",
      "outputs": [
        {
          "internalType": "uint256",
          "name": "",
          "type": "uint256"
        }
      ],
      "stateMutability": "view",
      "type": "function"
    },
    {
      "inputs": [],
      "name": "getElectionIdCounter",
      "outputs": [
        {
          "internalType": "uint256",
          "name": "",
          "type": "uint256"
        }
      ],
      "stateMutability": "view",
      "type": "function"
    },
    {
      "inputs": [
        {
          "internalType": "uint256[]",
          "name": "_electionIds",
          "type": "uint256[]"
        }
      ],
      "name": "getElectionsByIds",
      "outputs": [
        {
          "components": [
            {
              "internalType": "uint256",
              "name": "id",
              "type": "uint256"
            },
            {
              "internalType": "address",
              "name": "electionAddress",
              "type": "address"
            },
            {
              "internalType": "address",
              "name": "creator",
              "type": "address"
            },
            {
              "internalType": "string",
              "name": "name",
              "type": "string"
            },
            {
              "internalType": "string",
              "name": "description",
              "type": "string"
            },
            {
              "internalType": "uint256",
              "name": "startTime",
              "type": "uint256"
            },
            {
              "internalType": "uint256",
              "name": "endTime",
              "type": "uint256"
            },
            {
              "internalType": "uint256",
              "name": "createdAt",
              "type": "uint256"
            },
            {
              "internalType": "bool",
              "name": "isActive",
              "type": "bool"
            }
          ],
          "internalType": "struct ElectionFactory.ElectionMetadata[]",
          "name": "",
          "type": "tuple[]"
        }
      ],
      "stateMutability": "view",
      "type": "function"
    },
    {
      "inputs": [
        {
          "internalType": "uint256",
          "name": "_startTime",
          "type": "uint256"
        },
        {
          "internalType": "uint256",
          "name": "_endTime",
          "type": "uint256"
        }
      ],
      "name": "getElectionsByTimeRange",
      "outputs": [
        {
          "components": [
            {
              "internalType": "uint256",
              "name": "id",
              "type": "uint256"
            },
            {
              "internalType": "address",
              "name": "electionAddress",
              "type": "address"
            },
            {
              "internalType": "address",
              "name": "creator",
              "type": "address"
            },
            {
              "internalType": "string",
              "name": "name",
              "type": "string"
            },
            {
              "internalType": "string",
              "name": "description",
              "type": "string"
            },
            {
              "internalType": "uint256",
              "name": "startTime",
              "type": "uint256"
            },
            {
              "internalType": "uint256",
              "name": "endTime",
              "type": "uint256"
            },
            {
              "internalType": "uint256",
              "name": "createdAt",
              "type": "uint256"
            },
            {
              "internalType": "bool",
              "name": "isActive",
              "type": "bool"
            }
          ],
          "internalType": "struct ElectionFactory.ElectionMetadata[]",
          "name": "",
          "type": "tuple[]"
        }
      ],
      "stateMutability": "view",
      "type": "function"
    },
    {
      "inputs": [
        {
          "internalType": "address",
          "name": "_manager",
          "type": "address"
        }
      ],
      "name": "getManagerElections",
      "outputs": [
        {
          "internalType": "uint256[]",
          "name": "",
          "type": "uint256[]"
        }
      ],
      "stateMutability": "view",
      "type": "function"
    },
    {
      "inputs": [],
      "name": "getOngoingElections",
      "outputs": [
        {
          "components": [
            {
              "internalType": "uint256",
              "name": "id",
              "type": "uint256"
            },
            {
              "internalType": "address",
              "name": "electionAddress",
              "type": "address"
            },
            {
              "internalType": "address",
              "name": "creator",
              "type": "address"
            },
            {
              "internalType": "string",
              "name": "name",
              "type": "string"
            },
            {
              "internalType": "string",
              "name": "description",
              "type": "string"
            },
            {
              "internalType": "uint256",
              "name": "startTime",
              "type": "uint256"
            },
            {
              "internalType": "uint256",
              "name": "endTime",
              "type": "uint256"
            },
            {
              "internalType": "uint256",
              "name": "createdAt",
              "type": "uint256"
            },
            {
              "internalType": "bool",
              "name": "isActive",
              "type": "bool"
            }
          ],
          "internalType": "struct ElectionFactory.ElectionMetadata[]",
          "name": "",
          "type": "tuple[]"
        }
      ],
      "stateMutability": "view",
      "type": "function"
    },
    {
      "inputs": [],
      "name": "getTotalActiveElections",
      "outputs": [
        {
          "internalType": "uint256",
          "name": "",
          "type": "uint256"
        }
      ],
      "stateMutability": "view",
      "type": "function"
    },
    {
      "inputs": [],
      "name": "getTotalElections",
      "outputs": [
        {
          "internalType": "uint256",
          "name": "",
          "type": "uint256"
        }
      ],
      "stateMutability": "view",
      "type": "function"
    },
    {
      "inputs": [],
      "name": "getUpcomingElections",
      "outputs": [
        {
          "components": [
            {
              "internalType": "uint256",
              "name": "id",
              "type": "uint256"
            },
            {
              "internalType": "address",
              "name": "electionAddress",
              "type": "address"
            },
            {
              "internalType": "address",
              "name": "creator",
              "type": "address"
            },
            {
              "internalType": "string",
              "name": "name",
              "type": "string"
            },
            {
              "internalType": "string",
              "name": "description",
              "type": "string"
            },
            {
              "internalType": "uint256",
              "name": "startTime",
              "type": "uint256"
            },
            {
              "internalType": "uint256",
              "name": "endTime",
              "type": "uint256"
            },
            {
              "internalType": "uint256",
              "name": "createdAt",
              "type": "uint256"
            },
            {
              "internalType": "bool",
              "name": "isActive",
              "type": "bool"
            }
          ],
          "internalType": "struct ElectionFactory.ElectionMetadata[]",
          "name": "",
          "type": "tuple[]"
        }
      ],
      "stateMutability": "view",
      "type": "function"
    },
    {
      "inputs": [
        {
          "internalType": "address",
          "name": "",
          "type": "address"
        }
      ],
      "name": "isElectionContract",
      "outputs": [
        {
          "internalType": "bool",
          "name": "",
          "type": "bool"
        }
      ],
      "stateMutability": "view",
      "type": "function"
    },
    {
      "inputs": [
        {
          "internalType": "address",
          "name": "_address",
          "type": "address"
        }
      ],
      "name": "isValidElection",
      "outputs": [
        {
          "internalType": "bool",
          "name": "",
          "type": "bool"
        }
      ],
      "stateMutability": "view",
      "type": "function"
    },
    {
      "inputs": [
        {
          "internalType": "address",
          "name": "",
          "type": "address"
        },
        {
          "internalType": "uint256",
          "name": "",
          "type": "uint256"
        }
      ],
      "name": "managerElections",
      "outputs": [
        {
          "internalType": "uint256",
          "name": "",
          "type": "uint256"
        }
      ],
      "stateMutability": "view",
      "type": "function"
    },
    {
      "inputs": [
        {
          "internalType": "uint256",
          "name": "_electionId",
          "type": "uint256"
        }
      ],
      "name": "reactivateElection",
      "outputs": [],
      "stateMutability": "nonpayable",
      "type": "function"
    },
    {
      "inputs": [],
      "name": "roles",
      "outputs": [
        {
          "internalType": "contract Roles",
          "name": "",
          "type": "address"
        }
      ],
      "stateMutability": "view",
      "type": "function"
    }
  ],
  "bytecode": "0x60803460bd57601f61569538819003918201601f19168301916001600160401b0383118484101760c25780849260209460405283398101031260bd57516001600160a01b0381169081900360bd578015607857600080546001600160a01b0319169190911781556001556040516155bc90816100d98239f35b60405162461bcd60e51b815260206004820152601560248201527f496e76616c696420726f6c6573206164647265737300000000000000000000006044820152606490fd5b600080fd5b634e487b7160e01b600052604160045260246000fdfe6080604052600436101561001257600080fd5b60003560e01c80632709b52b14611a585780632f918b481461185a578063392f5f641461183157806345406017146118135780634b65b08a146117a35780635e6fef01146116dc578063600bb84c1461155657806368540ea41461136857806368ca4048146112ae5780636a9e70f11461105f57806370433f1714610eb157806376ff090814610e885780637fd5f26814610d975780638a3b63b014610c295780639c73168f14610ae55780639d71077714610b42578063a9392e0c14610b24578063a9a5315214610ae5578063aa7ebbd014610aba578063bf0e29501461088d578063d0fa2240146108345763ff50e12f1461010e57600080fd5b346108275760a0366003190112610827576004356001600160401b0381116108275761013e903690600401611ede565b6024356001600160401b0381116108275761015d903690600401611ede565b60005460405163da32347360e01b81526044359160643591608435916001600160a01b031690602081600481855afa90811561066b576000916107fc575b5060206101be9160405180938192632474521560e21b835233906004840161206b565b0381855afa90811561066b576000916107cd575b50156107905785511561075b574284111561071757838311156106c8578382101561067757610202600154611f34565b60018190556040519092909161348791828401916001600160401b038311858410176104d15784936121008539825233602083015260e0604083015260c061025e61025060e085018c611c24565b84810360608601528a611c24565b928860808201528760a0820152015203906000f0801561066b5760018060a01b03169360405161028d81611d85565b8281526020808201878152336040808501918252606085018b81526080860196875260a086018a815260c087018a81524260e0890190815260016101008a0181815260008d815260029a8b90529690962099518a55965196890180546001600160a01b03199081166001600160a01b03998a161790915595519789018054909616979096169690961790935551805191969394939160038701916001600160401b0382116104d15781906103418454611d4b565b601f8111610618575b50602090601f83116001146105b3576000926105a8575b50508160011b916000199060031b1c19161790555b51805160048601916001600160401b0382116104d1576103968354611d4b565b601f8111610560575b50602090601f83116001146104f257600897969594939291600091836104e7575b50508160011b916000199060031b1c19161790555b516005840155516006830155516007820155019051151560ff8019835416911617905533600052600360205260406000208054600160401b8110156104d157610428816104419360018694018155611ec6565b90919082549060031b91821b91600019901b1916179055565b600554600160401b8110156104d157602095859361048c846104288560017fa137c8139e38adff899cd7edacc9ee6367a1d662b899949a2cfcdb75410c05b697016005556005611ec6565b84600052600488526040600020600160ff198254161790556104b960405192606084526060840190611c24565b958883015260408201528033950390a4604051908152f35b634e487b7160e01b600052604160045260246000fd5b0151905038806103c0565b90601f1983169184600052816000209260005b818110610548575091600193918560089b9a99989796941061052f575b505050811b0190556103d5565b015160001960f88460031b161c19169055388080610522565b92936020600181928786015181550195019301610505565b836000526020600020601f840160051c8101916020851061059e575b601f0160051c01905b818110610592575061039f565b60008155600101610585565b909150819061057c565b015190503880610361565b60008581528281209350601f198516905b81811061060057509084600195949392106105e7575b505050811b019055610376565b015160001960f88460031b161c191690553880806105da565b929360206001819287860151815501950193016105c4565b909150836000526020600020601f840160051c81019160208510610661575b90601f859493920160051c01905b818110610652575061034a565b60008155849350600101610645565b9091508190610637565b6040513d6000823e3d90fd5b60405162461bcd60e51b815260206004820152602360248201527f526567697374726174696f6e206d75737420656e64206265666f726520766f74604482015262696e6760e81b6064820152608490fd5b60405162461bcd60e51b815260206004820152602160248201527f456e642074696d65206d7573742062652061667465722073746172742074696d6044820152606560f81b6064820152608490fd5b60405162461bcd60e51b815260206004820152601c60248201527b53746172742074696d65206d75737420626520696e2066757475726560201b6044820152606490fd5b60405162461bcd60e51b815260206004820152600d60248201526c13985b59481c995c5d5a5c9959609a1b6044820152606490fd5b60405162461bcd60e51b815260206004820152601560248201527427b7363c9032b632b1ba34b7b71036b0b730b3b2b960591b6044820152606490fd5b6107ef915060203d6020116107f5575b6107e78183611da1565b810190612053565b386101d2565b503d6107dd565b90506020813d60201161082c575b8161081760209383611da1565b810103126108275751602061019b565b600080fd5b3d915061080a565b346108275760403660031901126108275761084d611e7f565b6001600160a01b03166000908152600360205260409020805460243591908210156108275760209161087e91611ec6565b90549060031b1c604051908152f35b34610827576000366003190112610827576005546000805b8281106109d357506108b690611f9e565b906000805b8281106108d457604051806108d08682611ceb565b0390f35b6108dd81611e95565b90549060031b1c60005260026020526040600020604051906108fe82611d85565b8054825260018101546001600160a01b039081166020840152600282015416604083015261092e60038201611dc4565b606083015261093f60048201611dc4565b60808301526005810154908160a084015260ff60086006830154928360c0870152600781015460e087015201541615159182610100850152826109c8575b50816109bd575b50610993575b506001016108bb565b826109b6916109a56001949588611fee565b526109b08187611fee565b50611f34565b919061098a565b905042111586610984565b42101591508761097d565b6109dc81611e95565b90549060031b1c600052600260205261010060406000206040516109ff81611d85565b8154815260018201546001600160a01b0390811660208301526002830154166040820152610a2f60038301611dc4565b6060820152610a4060048301611dc4565b60808201526005820154908160a082015260ff60086006850154948560c0850152600781015460e08501520154161515938491015282610aaf575b5081610aa4575b50610a90575b6001016108a5565b90610a9c600191611f34565b919050610a88565b905042111584610a82565b421015915085610a7b565b34610827576020366003190112610827576020610add610ad8611e7f565b612084565b604051908152f35b34610827576020366003190112610827576001600160a01b03610b06611e7f565b166000526004602052602060ff604060002054166040519015158152f35b34610827576000366003190112610827576020600554604051908152f35b3461082757602036600319011261082757600435610b5e611f59565b50600081815260026020526040902060010154610b85906001600160a01b0316151561202f565b60005260026020526108d0604060002060ff600860405192610ba684611d85565b8054845260018101546001600160a01b0390811660208601526002820154166040850152610bd660038201611dc4565b6060850152610be760048201611dc4565b6080850152600581015460a0850152600681015460c0850152600781015460e08501520154161515610100820152604051918291602083526020830190611c65565b34610827576000366003190112610827576005546000805b828110610d525750610c5290611f9e565b906000805b828110610c6c57604051806108d08682611ceb565b610c7581611e95565b90549060031b1c600052600260205260ff60086040600020015416610c9d575b600101610c57565b90610d4a600191610cad84611e95565b90549060031b1c6000526002602052604060002060ff600860405192610cd284611d85565b805484528681015460a088901b88900390811660208601526002820154166040850152610d0160038201611dc4565b6060850152610d1260048201611dc4565b6080850152600581015460a0850152600681015460c0850152600781015460e085015201541615156101008201526109a58288611fee565b919050610c95565b610d5b81611e95565b90549060031b1c600052600260205260ff60086040600020015416610d83575b600101610c41565b90610d8f600191611f34565b919050610d7b565b3461082757600036600319011261082757600554610db481611f9e565b9060005b818110610dcd57604051806108d08582611ceb565b80610dd9600192611e95565b90549060031b1c6000526002602052604060002060ff600860405192610dfe84611d85565b805484528581015460a087901b87900390811660208601526002820154166040850152610e2d60038201611dc4565b6060850152610e3e60048201611dc4565b6080850152600581015460a0850152600681015460c0850152600781015460e08501520154161515610100820152610e768286611fee565b52610e818185611fee565b5001610db8565b34610827576020366003190112610827576004356005548110156108275761087e602091611e95565b3461082757602036600319011261082757600054604051631f1f1f0f60e21b815260048035926001600160a01b03169190602090829081855afa90811561066b5760009161102b575b50602090610f1f926040518080958194632474521560e21b835233906004840161206b565b03915afa90811561066b5760009161100c575b5015610fd457600081815260026020526040902060010154610f5e906001600160a01b0316151561202f565b80600052600260205260ff60086040600020015416610f95576000908152600260205260409020600801805460ff19166001179055005b60405162461bcd60e51b8152602060048201526017602482015276456c656374696f6e20616c72656164792061637469766560481b6044820152606490fd5b60405162461bcd60e51b815260206004820152601060248201526f27b7363c9039bab832b91030b236b4b760811b6044820152606490fd5b611025915060203d6020116107f5576107e78183611da1565b82610f32565b90506020813d602011611057575b8161104660209383611da1565b810103126108275751610f1f610efa565b3d9150611039565b346108275760403660031901126108275760243560043580821061127457600554906000805b83811061119c575061109690611f9e565b9260009060005b8481106110b257604051806108d08882611ceb565b6110bb81611e95565b90549060031b1c60005260026020526040600020604051906110dc82611d85565b8054825260018101546001600160a01b039081166020840152600282015416604083015261110c60038201611dc4565b606083015261111d60048201611dc4565b6080830152600581015460a0830152600681015460c083015260ff60086007830154928360e0860152015416151561010083015283868210159182611191575b505061116d575b5060010161109d565b8361118a9161117f600194968a611fee565b526109b08189611fee565b9290611164565b11159050838961115d565b6111a581611e95565b90549060031b1c600052600260205260406000206040516111c581611d85565b8154815260018201546001600160a01b03908116602083015260028301541660408201526111f560038301611dc4565b606082015261120660048301611dc4565b6080820152600582015460a0820152600682015460c082015261010060ff60086007850154948560e0860152015416151591015285848210159182611269575b5050611255575b600101611085565b90611261600191611f34565b91905061124d565b111590508587611246565b60405162461bcd60e51b8152602060048201526012602482015271496e76616c69642074696d652072616e676560701b6044820152606490fd5b34610827576020366003190112610827576001600160a01b036112cf611e7f565b16600052600360205260406000206040518060208354918281520190819360005260206000209060005b818110611352575050508161130f910382611da1565b6040519182916020830190602084525180915260408301919060005b818110611339575050500390f35b825184528594506020938401939092019160010161132b565b82548452602090930192600192830192016112f9565b34610827576000366003190112610827576005546000805b828110611484575061139190611f9e565b906000805b8281106113ab57604051806108d08682611ceb565b6113b481611e95565b90549060031b1c60005260026020526040600020604051906113d582611d85565b8054825260018101546001600160a01b039081166020840152600282015416604083015261140560038201611dc4565b606083015261141660048201611dc4565b608083015260ff60086005830154928360a0860152600681015460c0860152600781015460e0860152015416151590816101008401528161147a575b50611461575b50600101611396565b82611473916109a56001949588611fee565b9190611458565b9050421086611452565b61148d81611e95565b90549060031b1c600052600260205261010060406000206040516114b081611d85565b8154815260018201546001600160a01b03908116602083015260028301541660408201526114e060038301611dc4565b60608201526114f160048301611dc4565b608082015260ff60086005840154938460a0850152600681015460c0850152600781015460e0850152015416151592839101528161154c575b50611538575b600101611380565b90611544600191611f34565b919050611530565b905042108461152a565b34610827576020366003190112610827576004356001600160401b03811161082757366023820112156108275780600401359061159282611e68565b916115a06040519384611da1565b8083526024602084019160051b8301019136831161082757602401905b8282106116cc57836115cf8151611f9e565b9060005b81518110156116be57806115e960019284611fee565b51600052600260205261160b828060a01b03836040600020015416151561202f565b6116158184611fee565b516000526002602052604060002060ff60086040519261163484611d85565b805484528581015460a087901b8790039081166020860152600282015416604085015261166360038201611dc4565b606085015261167460048201611dc4565b6080850152600581015460a0850152600681015460c0850152600781015460e085015201541615156101008201526116ac8286611fee565b526116b78185611fee565b50016115d3565b604051806108d08582611ceb565b81358152602091820191016115bd565b346108275760203660031901126108275760043560005260026020526040600020805460018060a01b036001830154169160018060a01b0360028201541661172660038301611dc4565b9161173360048201611dc4565b9261178760058301549461177960068501549360ff6008600788015497015416966040519a8b9a8b5260208b015260408a015261012060608a0152610120890190611c24565b908782036080890152611c24565b9360a086015260c085015260e084015215156101008301520390f35b3461082757600036600319011261082757600080600554905b8181106117ce57602083604051908152f35b6117d781611e95565b90549060031b1c600052600260205260ff600860406000200154166117ff575b6001016117bc565b9161180b600191611f34565b9290506117f7565b34610827576000366003190112610827576020600154604051908152f35b34610827576000366003190112610827576000546040516001600160a01b039091168152602090f35b3461082757602036600319011261082757600435600081815260026020526040902060010154611894906001600160a01b0316151561202f565b80600052600260205260ff6008604060002001541615611a175780600052600260205260018060a01b036002604060002001541633148015611951575b1561191b57806000526002602052600860406000200160ff1981541690557f49bcd6f46dc83b2b0e1dddf9726d286fd6c044670480e9453d1b031897be7ee36020604051338152a2005b60405162461bcd60e51b815260206004820152600e60248201526d139bdd08185d5d1a1bdc9a5e995960921b6044820152606490fd5b50600054604051631f1f1f0f60e21b81526001600160a01b0390911690602081600481855afa90811561066b576000916119e3575b506020906119ab926040518080958194632474521560e21b835233906004840161206b565b03915afa90811561066b576000916119c4575b506118d1565b6119dd915060203d6020116107f5576107e78183611da1565b826119be565b90506020813d602011611a0f575b816119fe60209383611da1565b8101031261082757516119ab611986565b3d91506119f1565b60405162461bcd60e51b8152602060048201526019602482015278456c656374696f6e20616c726561647920696e61637469766560381b6044820152606490fd5b34610827576000366003190112610827576005546000805b828110611b635750611a8190611f9e565b906000805b828110611a9b57604051806108d08682611ceb565b611aa481611e95565b90549060031b1c6000526002602052604060002060405190611ac582611d85565b8054825260018101546001600160a01b0390811660208401526002820154166040830152611af560038201611dc4565b6060830152611b0660048201611dc4565b6080830152600581015460a083015260ff60086006830154928360c0860152600781015460e086015201541615156101008301524211611b4a575b50600101611a86565b82611b5c916109a56001949588611fee565b9190611b41565b611b6c81611e95565b90549060031b1c60005260026020526040600020604051611b8c81611d85565b8154815260018201546001600160a01b0390811660208301526002830154166040820152611bbc60038301611dc4565b6060820152611bcd60048301611dc4565b6080820152600582015460a082015261010060ff60086006850154948560c0860152600781015460e086015201541615159101524211611c10575b600101611a70565b90611c1c600191611f34565b919050611c08565b919082519283825260005b848110611c50575050826000602080949584010152601f8019910116010190565b80602080928401015182828601015201611c2f565b908151815260018060a01b03602083015116602082015260018060a01b03604083015116604082015261010080611cc2611cb060608601516101206060870152610120860190611c24565b60808601518582036080870152611c24565b9360a081015160a085015260c081015160c085015260e081015160e08501520151151591015290565b602081016020825282518091526040820191602060408360051b8301019401926000915b838310611d1e57505050505090565b9091929394602080611d3c600193603f198682030187528951611c65565b97019301930191939290611d0f565b90600182811c92168015611d7b575b6020831014611d6557565b634e487b7160e01b600052602260045260246000fd5b91607f1691611d5a565b61012081019081106001600160401b038211176104d157604052565b601f909101601f19168101906001600160401b038211908210176104d157604052565b9060405191826000825492611dd884611d4b565b8084529360018116908115611e465750600114611dff575b50611dfd92500383611da1565b565b90506000929192526020600020906000915b818310611e2a575050906020611dfd9282010138611df0565b6020919350806001915483858901015201910190918492611e11565b905060209250611dfd94915060ff191682840152151560051b82010138611df0565b6001600160401b0381116104d15760051b60200190565b600435906001600160a01b038216820361082757565b600554811015611eb057600560005260206000200190600090565b634e487b7160e01b600052603260045260246000fd5b8054821015611eb05760005260206000200190600090565b81601f82011215610827578035906001600160401b0382116104d15760405192611f12601f8401601f191660200185611da1565b8284526020838301011161082757816000926020809301838601378301015290565b6000198114611f435760010190565b634e487b7160e01b600052601160045260246000fd5b60405190611f6682611d85565b600061010083828152826020820152826040820152606080820152606060808201528260a08201528260c08201528260e08201520152565b90611fa882611e68565b611fb56040519182611da1565b8281528092611fc6601f1991611e68565b019060005b828110611fd757505050565b602090611fe2611f59565b82828501015201611fcb565b8051821015611eb05760209160051b010190565b606090602081526012602082015271115b1958dd1a5bdb881b9bdd08199bdd5b9960721b60408201520190565b1561203657565b60405162461bcd60e51b81528061204f60048201612002565b0390fd5b90816020910312610827575180151581036108275790565b9081526001600160a01b03909116602082015260400190565b6005549060005b8281106120ab5760405162461bcd60e51b81528061204f60048201612002565b6120b481611e95565b905460039190911b1c6000908152600260205260409020600101546001600160a01b038381169116146120e95760010161208b565b90506120f59150611e95565b90549060031b1c9056fe608060405234610670576134878038038061001981610675565b92833981019060e081830312610670576100328161069a565b61003e6020830161069a565b60408301516001600160401b038111610670578461005d9185016106d1565b606084015190946001600160401b0382116106705761007d9185016106d1565b9360808401519160c060a086015195015193600160005560018060a01b031690811561062b576001600160a01b03169081156105f457428411156105af57838611156105605783851015610508578251156104d357600180546001600160a01b0319908116929092179055600280549091169190911790556040519261010084016001600160401b038111858210176103d057604052818452602084019586526040840190838252606085018681526080860191825260a08601926000845260c087019860008a5260e0880197600089525180519060018060401b0382116103d05760035490600182811c921680156104c9575b60208310146103b05781601f849311610459575b50602090601f83116001146103f1576000926103e6575b50508160011b916000199060031b1c1916176003555b518051906001600160401b0382116103d05760045490600182811c921680156103c6575b60208310146103b05781601f849311610340575b50602090601f83116001146102d8576000926102cd575b50508160011b916000199060031b1c1916176004555b516005555160065551600755519260058410156102b7577f3192025d62576bbf32bcba53281e3aeec990aa639a799f5e1abaa5fc0b654f999560809460ff8019600854169116176008555160095551600a556000600b556040519384926060845261029183518094816060880152602088880191016106ae565b60208401526040830152601f01601f19168101030190a1604051612d6590816107228239f35b634e487b7160e01b600052602160045260246000fd5b015190503880610201565b600460009081528281209350601f198516905b818110610328575090846001959493921061030f575b505050811b01600455610217565b015160001960f88460031b161c19169055388080610301565b929360206001819287860151815501950193016102eb565b60046000529091507f8a35acfbc15ff81a39ae7d344fd709f28e8600b4aa8c65c6b64bfe7fe36bd19b601f840160051c810191602085106103a6575b90601f859493920160051c01905b81811061039757506101ea565b6000815584935060010161038a565b909150819061037c565b634e487b7160e01b600052602260045260246000fd5b91607f16916101d6565b634e487b7160e01b600052604160045260246000fd5b01519050388061019c565b600360009081528281209350601f198516905b8181106104415750908460019594939210610428575b505050811b016003556101b2565b015160001960f88460031b161c1916905538808061041a565b92936020600181928786015181550195019301610404565b60036000529091507fc2575a0e9e593c00f959f8c92f12db2869c3395a3b0502d05e2516446f71f85b601f840160051c810191602085106104bf575b90601f859493920160051c01905b8181106104b05750610185565b600081558493506001016104a3565b9091508190610495565b91607f1691610171565b60405162461bcd60e51b815260206004820152600d60248201526c13985b59481c995c5d5a5c9959609a1b6044820152606490fd5b60405162461bcd60e51b815260206004820152602a60248201527f526567697374726174696f6e206d75737420656e64206265666f726520766f74604482015269696e672073746172747360b01b6064820152608490fd5b60405162461bcd60e51b815260206004820152602160248201527f456e642074696d65206d7573742062652061667465722073746172742074696d6044820152606560f81b6064820152608490fd5b60405162461bcd60e51b815260206004820152601c60248201527f53746172742074696d65206d75737420626520696e20667574757265000000006044820152606490fd5b60405162461bcd60e51b815260206004820152600f60248201526e24b73b30b634b21036b0b730b3b2b960891b6044820152606490fd5b60405162461bcd60e51b815260206004820152601660248201527f496e76616c696420726f6c657320636f6e7472616374000000000000000000006044820152606490fd5b600080fd5b6040519190601f01601f191682016001600160401b038111838210176103d057604052565b51906001600160a01b038216820361067057565b60005b8381106106c15750506000910152565b81810151838201526020016106b1565b81601f820112156106705780516001600160401b0381116103d0576106ff601f8201601f1916602001610675565b92818452602082840101116106705761071e91602080850191016106ae565b9056fe6080604052600436101561001257600080fd5b60003560e01c8063030161301461231b57806309eef43e146122d95780630deb56ab146122bb578063156b8a6814611f295780631ec6b60a14611e2057806327f9fd5014611dba5780633477ee2e14611cc857806338db6dd3146119d0578063392f5f64146119a75780633eb76b9c1461163a5780634717f97c146113ba57806359f78468146112f15780636c74bf6d14611262578063793cf218146112445780637aff6f9114610ae65780637da3294914610abd5780638574c29614610a0957806386852dca146108e157806389a3f7a1146106955780638a2e368b1461065b5780638e7ea5b2146106385780639a70b327146105355780639ed1f25514610488578063a3ec138d14610425578063beddc62a14610304578063c6b41ec414610227578063d82f785214610209578063dd0e23731461019f5763eb2119db1461015b57600080fd5b3461019a57602036600319011261019a576001600160a01b0361017c612384565b16600052600d602052602060ff604060002054166040519015158152f35b600080fd5b3461019a57602036600319011261019a5760043560105481101561019a576000906010548110156101f5576010909152600080516020612d1083398151915201546040516001600160a01b039091168152602090f35b634e487b7160e01b82526032600452602482fd5b3461019a57600036600319011261019a576020600b54604051908152f35b3461019a57600036600319011261019a5761024d60018060a01b0360025416331461293b565b60ff6008541660058110156102aa57610266901561297f565b6007544210156102c05760ff61028e6008546001831982161760085560405192839116612771565b60408160016020600080516020612cd0833981519152940152a1005b634e487b7160e01b600052602160045260246000fd5b60405162461bcd60e51b815260206004820152601c60248201527b149959da5cdd1c985d1a5bdb88191958591b1a5b99481c185cdcd95960221b6044820152606490fd5b3461019a57600036600319011261019a57600f546000805b8281106103d4575061032d90612c7f565b60009160005b81811061034c576040518061034885826127d4565b0390f35b61035581612353565b90549060031b1c600052600c60205260ff600660406000200154169060038210156102aa57600180921461038a575b01610333565b61039381612353565b90549060031b1c600052600c6020526103ce6040600020956103bd6103b782612b2e565b97612a4e565b6103c782886128ad565b52856128ad565b50610384565b6103dd81612353565b90549060031b1c600052600c60205260ff6006604060002001541660038110156102aa57600114610411575b60010161031c565b9061041d600191612b2e565b919050610409565b3461019a57602036600319011261019a576001600160a01b03610446612384565b16600052600d60205260806040600020805490600260018201549101549060ff604051938181161515855260081c161515602084015260408301526060820152f35b3461019a57602036600319011261019a576104a1612384565b600060606040516104b18161239a565b828152826020820152826040820152015260018060a01b0316600052600d602052608060406000206040516104e58161239a565b81549160ff831615159283835260ff602084019160081c16151581526060600260018401549360408601948552015493019283526040519384525115156020840152516040830152516060820152f35b3461019a57600036600319011261019a57600f546000805b8281106105e9575061055e90612c7f565b60009160005b818110610579576040518061034885826127d4565b61058281612353565b90549060031b1c600052600c60205260ff600660406000200154169060038210156102aa57600191156105b6575b01610564565b6105bf81612353565b90549060031b1c600052600c6020526105e36040600020956103bd6103b782612b2e565b506105b0565b6105f281612353565b90549060031b1c600052600c60205260ff6006604060002001541660038110156102aa5715610624575b60010161054d565b90610630600191612b2e565b91905061061c565b3461019a57600036600319011261019a576020610653612b85565b604051908152f35b3461019a57602036600319011261019a576001600160a01b0361067c612384565b16600052600e6020526020604060002054604051908152f35b3461019a57604036600319011261019a57600435602435801515810361019a57600154604051637282f83760e01b81526001600160a01b0390911690602081600481855afa9081156108a1576000916108ad575b5060209061070e926040518080958194632474521560e21b835233906004840161284c565b03915afa9081156108a157600091610872575b50801561085e575b61073290612865565b60ff6008541660058110156102aa57600161074d911461297f565b81600052600c60205261076a60ff60086040600020015416612a0c565b81600052600c60205260ff6006604060002001541660038110156102aa5761082557156108045780600052600c6020526006604060002001600160ff198254161790556107b8600a54612b2e565b600a555b80600052600c6020527f4261d0d7bfbe351b56f727633300f2c4027fabab6d1022651fc8cf8eb0990f2c602060ff600660406000200154166108016040518092612468565ba2005b80600052600c6020526006604060002001600260ff198254161790556107bc565b60405162461bcd60e51b8152602060048201526011602482015270105b1c9958591e481d985b1a59185d1959607a1b6044820152606490fd5b506002546001600160a01b03163314610729565b610894915060203d60201161089a575b61088c81836123ed565b810190612834565b83610721565b503d610882565b6040513d6000823e3d90fd5b90506020813d6020116108d9575b816108c8602093836123ed565b8101031261019a575161070e6106e9565b3d91506108bb565b3461019a57600036600319011261019a57600060e0604051610902816123d1565b60608152606060208201528260408201528260608201528260808201528260a08201528260c08201520152604051610939816123d1565b61094161254b565b815261094b612604565b9060208101918252600554604082019081526006549260608301938452600754936080840194855260ff6008541660a0850160058210156102aa576109c7966109f89282526009549360c088019485526109da600a549660e08a019788526040519a8b9a60208c525161010060208d01526101208c0190612427565b90518a8203601f190160408c0152612427565b965160608901525160808801525160a08701525160c0860190612771565b5160e0840152516101008301520390f35b3461019a57600036600319011261019a57610a2f60018060a01b0360025416331461293b565b60ff6008541660058110156102aa576003610a4a911461297f565b60ff610a686008546004831982161760085560405192839116612771565b60408160046020600080516020612cd0833981519152940152a17f97a9e2e4d42bd955a4cf4a3c201f08b73feebfacf054682113ec7769d998cc716040610aad612b85565b60095482519182526020820152a1005b3461019a57600036600319011261019a576002546040516001600160a01b039091168152602090f35b3461019a57608036600319011261019a576004356001600160401b03811161019a57610b1690369060040161277e565b6024356001600160401b03811161019a57610b3590369060040161277e565b906044356001600160401b03811161019a57610b5590369060040161277e565b6064356001600160401b03811161019a57610b7490369060040161277e565b60ff6008541660058110156102aa576001610b8f911461297f565b6007544210156112095733600052600e602052610bb160406000205415612aed565b8251156111d45783511561119e57610bca600b54612b2e565b9384600b5560405191610bdc836123b5565b85835260208301933385526040840192868452606085019081526080850191825260a0850192835260c08501936000855260e08601966000885261010087019960018b52600052600c602052604060002096518755600187019060018060a01b0390511660018060a01b031982541617905560028601905180519060018060401b038211610f3f578190610c708454612511565b601f811161114b575b50602090601f83116001146110e6576000926110db575b50508160011b916000199060031b1c19161790555b51805160038601916001600160401b038211610f3f578190610cc78454612511565b601f8111611088575b50602090601f831160011461102357600092611018575b50508160011b916000199060031b1c19161790555b51805160048501916001600160401b038211610f3f578190610d1e8454612511565b601f8111610fc5575b50602090601f8311600114610f6057600092610f55575b50508160011b916000199060031b1c19161790555b51805160058401916001600160401b038211610f3f578190610d758454612511565b601f8111610eec575b50602090601f8311600114610e8757600092610e7c575b50508160011b916000199060031b1c19161790555b6006820190519460038610156102aa57610de09360089260009760ff8019835416911617905551600784015551151591016128c1565b600b54338352600e60205260408320819055600f54600160401b811015610e6857806001610e119201600f55612353565b819291549060031b91821b91600019901b1916179055600b547f9d578c41b8bdec65a49d33c116348eab36fda5bd5b8d9ecec2cf54051de8cd9f6040516020815280610e6233956020830190612427565b0390a380f35b634e487b7160e01b84526041600452602484fd5b015190508880610d95565b60008581528281209350601f198516905b818110610ed45750908460019594939210610ebb575b505050811b019055610daa565b015160001960f88460031b161c19169055888080610eae565b92936020600181928786015181550195019301610e98565b909150836000526020600020601f840160051c81019160208510610f35575b90601f859493920160051c01905b818110610f265750610d7e565b60008155849350600101610f19565b9091508190610f0b565b634e487b7160e01b600052604160045260246000fd5b015190508980610d3e565b60008581528281209350601f198516905b818110610fad5750908460019594939210610f94575b505050811b019055610d53565b015160001960f88460031b161c19169055898080610f87565b92936020600181928786015181550195019301610f71565b909150836000526020600020601f840160051c8101916020851061100e575b90601f859493920160051c01905b818110610fff5750610d27565b60008155849350600101610ff2565b9091508190610fe4565b015190508a80610ce7565b60008581528281209350601f198516905b8181106110705750908460019594939210611057575b505050811b019055610cfc565b015160001960f88460031b161c191690558a808061104a565b92936020600181928786015181550195019301611034565b909150836000526020600020601f840160051c810191602085106110d1575b90601f859493920160051c01905b8181106110c25750610cd0565b600081558493506001016110b5565b90915081906110a7565b015190508b80610c90565b60008581528281209350601f198516905b818110611133575090846001959493921061111a575b505050811b019055610ca5565b015160001960f88460031b161c191690558b808061110d565b929360206001819287860151815501950193016110f7565b909150836000526020600020601f840160051c81019160208510611194575b90601f859493920160051c01905b8181106111855750610c79565b60008155849350600101611178565b909150819061116a565b60405162461bcd60e51b815260206004820152600e60248201526d14185c9d1e481c995c5d5a5c995960921b6044820152606490fd5b60405162461bcd60e51b815260206004820152600d60248201526c13985b59481c995c5d5a5c9959609a1b6044820152606490fd5b60405162461bcd60e51b8152602060048201526013602482015272149959da5cdd1c985d1a5bdb8818db1bdcd959606a1b6044820152606490fd5b3461019a57600036600319011261019a576020601054604051908152f35b3461019a57600036600319011261019a576112bb61127e61254b565b611286612604565b600554906006546112e360075460ff6008541690600954936112c9600a54966040519a8b9a6101008c526101008c0190612427565b908a820360208c0152612427565b9660408901526060880152608087015260a0860190612771565b60c084015260e08301520390f35b3461019a57600036600319011261019a5761131760018060a01b0360025416331461293b565b60ff6008541660058110156102aa576002611332911461297f565b60065442106113755760ff6113596008546003831982161760085560405192839116612771565b60408160036020600080516020612cd0833981519152940152a1005b60405162461bcd60e51b815260206004820152601d60248201527f456c656374696f6e20656e642074696d65206e6f7420726561636865640000006044820152606490fd5b3461019a57600036600319011261019a5760ff6008541660058110156102aa576003811490811561162f575b50156115ee57600f546000805b82811061159d57509061140582612b53565b9161140f81612410565b9061141d60405192836123ed565b808252601f1961142c82612410565b0160005b81811061158a57505061144290612b53565b916000805b8281106114da5761146885878660405193849260608452606084019061273d565b928284036020840152815180855260208501946020808360051b8301019401956000915b8383106114a75786806103488888838203604085015261273d565b9193955091936020806114c6600193601f198682030187528a51612427565b98019301930190928795939694929661148c565b6114e681959495612353565b90549060031b1c80600052600c60205260ff6006604060002001541660038110156102aa5760011461151f575b50600101939293611447565b828161158392611532600195968b6128ad565b5280600052600c60205261154c600260406000200161269b565b611556838a6128ad565b5261156182896128ad565b50600052600c60205260076040600020015461157d82886128ad565b52612b2e565b9190611513565b6060602082860181019190915201611430565b6115a681612353565b90549060031b1c600052600c60205260ff6006604060002001541660038110156102aa576001146115da575b6001016113f3565b906115e6600191612b2e565b9190506115d2565b60405162461bcd60e51b815260206004820152601960248201527814995cdd5b1d1cc81b9bdd08185d985a5b18589b19481e595d603a1b6044820152606490fd5b6004915014816113e6565b3461019a57602036600319011261019a5760015460405163475f97eb60e11b815260048035926001600160a01b03169190602090829081855afa9081156108a157600091611973575b506020906116a8926040518080958194632474521560e21b835233906004840161284c565b03915afa9081156108a157600091611954575b50156119175760ff6008541660058110156102aa5760026116dc911461297f565b60026000541461190657600260005533600052600d60205260ff60406000205416156118ca5733600052600d60205260ff60406000205460081c166118955780600052600c60205261173860ff60086040600020015416612a0c565b80600052600c60205260ff6006604060002001541660038110156102aa5760010361185757600554421061181d5760065442116117e957336000908152600d60209081526040808320805461ff001916610100178155600101849055838352600c909152902060070180546117ac90612b2e565b90556117b9600954612b2e565b600955337fd0e6c39f2e086dc49f1524b47725526a56945cd1ff661f37976f1725a1e56986600080a36001600055005b60405162461bcd60e51b815260206004820152600c60248201526b159bdd1a5b99c8195b99195960a21b6044820152606490fd5b60405162461bcd60e51b8152602060048201526012602482015271159bdd1a5b99c81b9bdd081cdd185c9d195960721b6044820152606490fd5b60405162461bcd60e51b815260206004820152601660248201527510d85b991a59185d19481b9bdd08185c1c1c9bdd995960521b6044820152606490fd5b60405162461bcd60e51b815260206004820152600d60248201526c105b1c9958591e481d9bdd1959609a1b6044820152606490fd5b60405162461bcd60e51b81526020600482015260146024820152732737ba103932b3b4b9ba32b932b2103b37ba32b960611b6044820152606490fd5b633ee5aeb560e01b60005260046000fd5b60405162461bcd60e51b815260206004820152601560248201527427b7363c903932b3b4b9ba32b932b2103b37ba32b960591b6044820152606490fd5b61196d915060203d60201161089a5761088c81836123ed565b826116bb565b90506020813d60201161199f575b8161198e602093836123ed565b8101031261019a57516116a8611683565b3d9150611981565b3461019a57600036600319011261019a576001546040516001600160a01b039091168152602090f35b3461019a57602036600319011261019a576119e9612384565b600154604051637282f83760e01b81526001600160a01b039091169190602081600481865afa9081156108a157600091611c95575b506020611a419160405180938192632474521560e21b835233906004840161284c565b0381865afa9081156108a157600091611c76575b508015611c62575b611a6690612865565b6001600160a01b038116918215611c255782600052600d602052611a9260ff6040600020541615612aed565b60405163475f97eb60e11b815290602082600481845afa80156108a1578392600091611bed575b5091602091611ade93604051809581948293632474521560e21b84526004840161284c565b03915afa9081156108a157600091611bce575b5015611b7e57611b6990604051611b078161239a565b60018152600260208201600081526040830160008152611b5a606085019242845288600052600d602052611b43604060002096511515876128c1565b51855461ff00191690151560081b61ff0016178555565b516001840155519101556128d2565b600080516020612cf0833981519152600080a2005b60405162461bcd60e51b815260206004820152602260248201527f41646472657373206d757374206861766520564f54455220726f6c65206669726044820152611cdd60f21b6064820152608490fd5b611be7915060203d60201161089a5761088c81836123ed565b83611af1565b9250506020823d602011611c1d575b81611c09602093836123ed565b8101031261019a5790518291906020611ab9565b3d9150611bfc565b60405162461bcd60e51b8152602060048201526015602482015274496e76616c696420766f746572206164647265737360581b6044820152606490fd5b506002546001600160a01b03163314611a5d565b611c8f915060203d60201161089a5761088c81836123ed565b83611a55565b90506020813d602011611cc0575b81611cb0602093836123ed565b8101031261019a57516020611a1e565b3d9150611ca3565b3461019a57602036600319011261019a576004356000908152600c60205260409020805460018201546001600160a01b031691611d076002820161269b565b611d136003830161269b565b91611d206004820161269b565b611d2c6005830161269b565b90600683015460ff16946007840154936008015460ff1694604051988998895260208901526040880161012090526101208801611d6891612427565b8781036060890152611d7991612427565b8681036080880152611d8a91612427565b85810360a0870152611d9b91612427565b9260c08501611da991612468565b60e084015215156101008301520390f35b3461019a57602036600319011261019a57600435611dd66129c5565b5080600052600c602052611df460ff60086040600020015416612a0c565b600052600c602052610348611e0c6040600020612a4e565b604051918291602083526020830190612475565b3461019a57600036600319011261019a57611e4660018060a01b0360025416331461293b565b60ff6008541660058110156102aa576001611e61911461297f565b6005544210611eea57600a5415611eac5760ff611e906008546002831982161760085560405192839116612771565b60408160026020600080516020612cd0833981519152940152a1005b60405162461bcd60e51b81526020600482015260166024820152754e6f20617070726f7665642063616e6469646174657360501b6044820152606490fd5b60405162461bcd60e51b8152602060048201526017602482015276159bdd1a5b99c81d1a5b59481b9bdd081c995858da1959604a1b6044820152606490fd5b3461019a57602036600319011261019a576004356001600160401b03811161019a573660238201121561019a578060040135611f6481612410565b91611f7260405193846123ed565b8183526024602084019260051b8201019036821161019a57602401915b81831061229b57600154604051637282f83760e01b815285916001600160a01b031690602081600481855afa9081156108a157600091612267575b50602090611fef926040518080958194632474521560e21b835233906004840161284c565b03915afa9081156108a157600091612248575b508015612234575b61201390612865565b8051156121fc5760648151116121c0576000905b80518210156121be576001600160a01b0361204283836128ad565b511691821580156121a6575b80156120d8575b92600192936120d25760405161206a8161239a565b8381526002602082016000815260408301600081526120a5606085019242845286600052600d602052611b43604060002096511515876128c1565b5186840155519101556120b7816128d2565b600080516020612cf0833981519152600080a25b0190612027565b506120cb565b5060015460405163475f97eb60e11b81526001600160a01b039091169390602081600481885afa9081156108a157600091612172575b50816121349495602092604051809781948293632474521560e21b84526004840161284c565b03915afa80156108a157600193600091612154575b501590939250612055565b61216c915060203d811161089a5761088c81836123ed565b85612149565b906020823d821161219e575b8161218b602093836123ed565b8101031261219b5750518161210e565b80fd5b3d915061217e565b5082600052600d60205260ff6040600020541661204e565b005b60405162461bcd60e51b815260206004820152601460248201527342617463682073697a6520746f6f206c6172676560601b6044820152606490fd5b60405162461bcd60e51b815260206004820152601060248201526f115b5c1d1e481d9bdd195c881b1a5cdd60821b6044820152606490fd5b506002546001600160a01b0316331461200a565b612261915060203d60201161089a5761088c81836123ed565b82612002565b90506020813d602011612293575b81612282602093836123ed565b8101031261019a5751611fef611fca565b3d9150612275565b82356001600160a01b038116810361019a57815260209283019201611f8f565b3461019a57600036600319011261019a576020600f54604051908152f35b3461019a57602036600319011261019a576001600160a01b036122fa612384565b16600052600d602052602060ff60406000205460081c166040519015158152f35b3461019a57602036600319011261019a57600435600f5481101561019a57612344602091612353565b90549060031b1c604051908152f35b600f5481101561236e57600f60005260206000200190600090565b634e487b7160e01b600052603260045260246000fd5b600435906001600160a01b038216820361019a57565b608081019081106001600160401b03821117610f3f57604052565b61012081019081106001600160401b03821117610f3f57604052565b61010081019081106001600160401b03821117610f3f57604052565b601f909101601f19168101906001600160401b03821190821017610f3f57604052565b6001600160401b038111610f3f5760051b60200190565b919082519283825260005b848110612453575050826000602080949584010152601f8019910116010190565b80602080928401015182828601015201612432565b9060038210156102aa5752565b908151815260018060a01b036020830151166020820152610100806124ea6124d86124c66124b460408801516101206040890152610120880190612427565b60608801518782036060890152612427565b60808701518682036080880152612427565b60a086015185820360a0870152612427565b936124fd60c082015160c0860190612468565b60e081015160e08501520151151591015290565b90600182811c92168015612541575b602083101461252b57565b634e487b7160e01b600052602260045260246000fd5b91607f1691612520565b604051906000826003549161255f83612511565b80835292600181169081156125e55750600114612585575b612583925003836123ed565b565b506003600090815290917fc2575a0e9e593c00f959f8c92f12db2869c3395a3b0502d05e2516446f71f85b5b8183106125c957505090602061258392820101612577565b60209193508060019154838589010152019101909184926125b1565b6020925061258394915060ff191682840152151560051b820101612577565b604051906000826004549161261883612511565b80835292600181169081156125e5575060011461263b57612583925003836123ed565b506004600090815290917f8a35acfbc15ff81a39ae7d344fd709f28e8600b4aa8c65c6b64bfe7fe36bd19b5b81831061267f57505090602061258392820101612577565b6020919350806001915483858901015201910190918492612667565b90604051918260008254926126af84612511565b808452936001811690811561271b57506001146126d4575b50612583925003836123ed565b90506000929192526020600020906000915b8183106126ff57505090602061258392820101386126c7565b60209193508060019154838589010152019101909184926126e6565b90506020925061258394915060ff191682840152151560051b820101386126c7565b906020808351928381520192019060005b81811061275b5750505090565b825184526020938401939092019160010161274e565b9060058210156102aa5752565b81601f8201121561019a578035906001600160401b038211610f3f57604051926127b2601f8401601f1916602001856123ed565b8284526020838301011161019a57816000926020809301838601378301015290565b602081016020825282518091526040820191602060408360051b8301019401926000915b83831061280757505050505090565b9091929394602080612825600193603f198682030187528951612475565b970193019301919392906127f8565b9081602091031261019a5751801515810361019a5790565b9081526001600160a01b03909116602082015260400190565b1561286c57565b60405162461bcd60e51b815260206004820152601960248201527827b7363c9030baba3437b934ba3c9037b91036b0b730b3b2b960391b6044820152606490fd5b805182101561236e5760209160051b010190565b9060ff801983541691151516179055565b601054600160401b811015610f3f576001810160105560006010548210156129275760109052600080516020612d108339815191520180546001600160a01b0319166001600160a01b03909216919091179055565b634e487b7160e01b81526032600452602490fd5b1561294257565b60405162461bcd60e51b815260206004820152601560248201527427b7363c9032b632b1ba34b7b71036b0b730b3b2b960591b6044820152606490fd5b1561298657565b60405162461bcd60e51b8152602060048201526017602482015276496e76616c696420656c656374696f6e2073746174757360481b6044820152606490fd5b604051906129d2826123b5565b6000610100838281528260208201526060604082015260608082015260606080820152606060a08201528260c08201528260e08201520152565b15612a1357565b60405162461bcd60e51b815260206004820152601360248201527210d85b991a59185d19481b9bdd08199bdd5b99606a1b6044820152606490fd5b90604051612a5b816123b5565b8254815260018301546001600160a01b03166020820152918290612a816002820161269b565b6040830152612a926003820161269b565b6060830152612aa36004820161269b565b6080830152612ab46005820161269b565b60a083015260ff6006820154169060038210156102aa57600860ff916101009360c0860152600781015460e08601520154161515910152565b15612af457565b60405162461bcd60e51b8152602060048201526012602482015271105b1c9958591e481c9959da5cdd195c995960721b6044820152606490fd5b6000198114612b3d5760010190565b634e487b7160e01b600052601160045260246000fd5b90612b5d82612410565b612b6a60405191826123ed565b8281528092612b7b601f1991612410565b0190602036910137565b60ff6008541660058110156102aa5760038114908115612c74575b5015612c3a576000806000600f54905b818110612bbd5750505090565b612bc681612353565b90549060031b1c80600052600c60205260ff6006604060002001541660038110156102aa5760011480612c20575b612c02575b50600101612bb0565b6000818152600c602052604090206007015490945092506001612bf9565b5080600052600c6020528360076040600020015411612bf4565b60405162461bcd60e51b8152602060048201526012602482015271115b1958dd1a5bdb881b9bdd08195b99195960721b6044820152606490fd5b600491501438612ba0565b90612c8982612410565b612c9660405191826123ed565b8281528092612ca7601f1991612410565b019060005b828110612cb857505050565b602090612cc36129c5565b82828501015201612cac56fe54acea47b4dce95a26d5693884e87e30a7d7d2b0fe576ca2d8a5ffe7ef510400b6be2187d059cc2a55fe29e0e503b566e1e0f8c8780096e185429350acffd3dd1b6847dc741a1b0cd08d278845f9d819d87b734759afb55fe2de5cb82a9ae672a26469706673582212201d80a2fb250ea2feb9e13d821e2e780b5201cc3ac8557ce1099a40132176db9564736f6c634300081c0033a2646970667358221220c9900cb22b2ca3d507ab36b712b00043aee44bee08b40b2436a1e02daf6ad17864736f6c634300081c0033",
  "linkReferences": {},
  "deployedLinkReferences": {}
}