{
  "_format": "hh-sol-artifact-1",
  "contractName": "Roles",
  "sourceName": "contracts/Roles.sol",
  "abi": [
    {
      "inputs": [
        {
          "internalType": "address",
          "name": "superAdmin",
          "type": "address"
        }
      ],
      "stateMutability": "nonpayable",
      "type": "constructor"
    },
    {
      "inputs": [],
      "name": "AccessControlBadConfirmation",
      "type": "error"
    },
    {
      "inputs": [
        {
          "internalType": "address",
          "name": "account",
          "type": "address"
        },
        {
          "internalType": "bytes32",
          "name": "neededRole",
          "type": "bytes32"
        }
      ],
      "name": "AccessControlUnauthorizedAccount",
      "type": "error"
    },
    {
      "anonymous": false,
      "inputs": [
        {
          "indexed": true,
          "internalType": "address",
          "name": "account",
          "type": "address"
        }
      ],
      "name": "ElectionAuthorityAdded",
      "type": "event"
    },
    {
      "anonymous": false,
      "inputs": [
        {
          "indexed": true,
          "internalType": "address",
          "name": "account",
          "type": "address"
        }
      ],
      "name": "ElectionManagerAdded",
      "type": "event"
    },
    {
      "anonymous": false,
      "inputs": [
        {
          "indexed": true,
          "internalType": "bytes32",
          "name": "role",
          "type": "bytes32"
        },
        {
          "indexed": true,
          "internalType": "bytes32",
          "name": "previousAdminRole",
          "type": "bytes32"
        },
        {
          "indexed": true,
          "internalType": "bytes32",
          "name": "newAdminRole",
          "type": "bytes32"
        }
      ],
      "name": "RoleAdminChanged",
      "type": "event"
    },
    {
      "anonymous": false,
      "inputs": [
        {
          "indexed": true,
          "internalType": "bytes32",
          "name": "role",
          "type": "bytes32"
        },
        {
          "indexed": true,
          "internalType": "address",
          "name": "account",
          "type": "address"
        },
        {
          "indexed": true,
          "internalType": "address",
          "name": "sender",
          "type": "address"
        }
      ],
      "name": "RoleGranted",
      "type": "event"
    },
    {
      "anonymous": false,
      "inputs": [
        {
          "indexed": true,
          "internalType": "bytes32",
          "name": "role",
          "type": "bytes32"
        },
        {
          "indexed": true,
          "internalType": "address",
          "name": "account",
          "type": "address"
        }
      ],
      "name": "RoleRemoved",
      "type": "event"
    },
    {
      "anonymous": false,
      "inputs": [
        {
          "indexed": true,
          "internalType": "bytes32",
          "name": "role",
          "type": "bytes32"
        },
        {
          "indexed": true,
          "internalType": "address",
          "name": "account",
          "type": "address"
        },
        {
          "indexed": true,
          "internalType": "address",
          "name": "sender",
          "type": "address"
        }
      ],
      "name": "RoleRevoked",
      "type": "event"
    },
    {
      "anonymous": false,
      "inputs": [
        {
          "indexed": true,
          "internalType": "address",
          "name": "account",
          "type": "address"
        }
      ],
      "name": "SuperAdminAdded",
      "type": "event"
    },
    {
      "anonymous": false,
      "inputs": [
        {
          "indexed": true,
          "internalType": "address",
          "name": "account",
          "type": "address"
        }
      ],
      "name": "VoterAdded",
      "type": "event"
    },
    {
      "inputs": [],
      "name": "DEFAULT_ADMIN_ROLE",
      "outputs": [
        {
          "internalType": "bytes32",
          "name": "",
          "type": "bytes32"
        }
      ],
      "stateMutability": "view",
      "type": "function"
    },
    {
      "inputs": [],
      "name": "ELECTION_AUTHORITY",
      "outputs": [
        {
          "internalType": "bytes32",
          "name": "",
          "type": "bytes32"
        }
      ],
      "stateMutability": "view",
      "type": "function"
    },
    {
      "inputs": [],
      "name": "ELECTION_MANAGER",
      "outputs": [
        {
          "internalType": "bytes32",
          "name": "",
          "type": "bytes32"
        }
      ],
      "stateMutability": "view",
      "type": "function"
    },
    {
      "inputs": [],
      "name": "SUPER_ADMIN",
      "outputs": [
        {
          "internalType": "bytes32",
          "name": "",
          "type": "bytes32"
        }
      ],
      "stateMutability": "view",
      "type": "function"
    },
    {
      "inputs": [],
      "name": "VOTER",
      "outputs": [
        {
          "internalType": "bytes32",
          "name": "",
          "type": "bytes32"
        }
      ],
      "stateMutability": "view",
      "type": "function"
    },
    {
      "inputs": [
        {
          "internalType": "address",
          "name": "account",
          "type": "address"
        }
      ],
      "name": "addElectionAuthority",
      "outputs": [],
      "stateMutability": "nonpayable",
      "type": "function"
    },
    {
      "inputs": [
        {
          "internalType": "address",
          "name": "account",
          "type": "address"
        }
      ],
      "name": "addElectionManager",
      "outputs": [],
      "stateMutability": "nonpayable",
      "type": "function"
    },
    {
      "inputs": [
        {
          "internalType": "address",
          "name": "account",
          "type": "address"
        }
      ],
      "name": "addSuperAdmin",
      "outputs": [],
      "stateMutability": "nonpayable",
      "type": "function"
    },
    {
      "inputs": [
        {
          "internalType": "address",
          "name": "account",
          "type": "address"
        }
      ],
      "name": "addVoter",
      "outputs": [],
      "stateMutability": "nonpayable",
      "type": "function"
    },
    {
      "inputs": [
        {
          "internalType": "bytes32",
          "name": "role",
          "type": "bytes32"
        }
      ],
      "name": "getRoleAdmin",
      "outputs": [
        {
          "internalType": "bytes32",
          "name": "",
          "type": "bytes32"
        }
      ],
      "stateMutability": "view",
      "type": "function"
    },
    {
      "inputs": [
        {
          "internalType": "bytes32",
          "name": "role",
          "type": "bytes32"
        },
        {
          "internalType": "address",
          "name": "account",
          "type": "address"
        }
      ],
      "name": "grantRole",
      "outputs": [],
      "stateMutability": "nonpayable",
      "type": "function"
    },
    {
      "inputs": [
        {
          "internalType": "bytes32",
          "name": "role",
          "type": "bytes32"
        },
        {
          "internalType": "address",
          "name": "account",
          "type": "address"
        }
      ],
      "name": "hasRole",
      "outputs": [
        {
          "internalType": "bool",
          "name": "",
          "type": "bool"
        }
      ],
      "stateMutability": "view",
      "type": "function"
    },
    {
      "inputs": [
        {
          "internalType": "address",
          "name": "account",
          "type": "address"
        }
      ],
      "name": "isElectionAuthority",
      "outputs": [
        {
          "internalType": "bool",
          "name": "",
          "type": "bool"
        }
      ],
      "stateMutability": "view",
      "type": "function"
    },
    {
      "inputs": [
        {
          "internalType": "address",
          "name": "account",
          "type": "address"
        }
      ],
      "name": "isElectionManager",
      "outputs": [
        {
          "internalType": "bool",
          "name": "",
          "type": "bool"
        }
      ],
      "stateMutability": "view",
      "type": "function"
    },
    {
      "inputs": [
        {
          "internalType": "address",
          "name": "account",
          "type": "address"
        }
      ],
      "name": "isSuperAdmin",
      "outputs": [
        {
          "internalType": "bool",
          "name": "",
          "type": "bool"
        }
      ],
      "stateMutability": "view",
      "type": "function"
    },
    {
      "inputs": [
        {
          "internalType": "address",
          "name": "account",
          "type": "address"
        }
      ],
      "name": "isVoter",
      "outputs": [
        {
          "internalType": "bool",
          "name": "",
          "type": "bool"
        }
      ],
      "stateMutability": "view",
      "type": "function"
    },
    {
      "inputs": [
        {
          "internalType": "address",
          "name": "account",
          "type": "address"
        }
      ],
      "name": "removeElectionAuthority",
      "outputs": [],
      "stateMutability": "nonpayable",
      "type": "function"
    },
    {
      "inputs": [
        {
          "internalType": "address",
          "name": "account",
          "type": "address"
        }
      ],
      "name": "removeElectionManager",
      "outputs": [],
      "stateMutability": "nonpayable",
      "type": "function"
    },
    {
      "inputs": [
        {
          "internalType": "address",
          "name": "account",
          "type": "address"
        }
      ],
      "name": "removeSuperAdmin",
      "outputs": [],
      "stateMutability": "nonpayable",
      "type": "function"
    },
    {
      "inputs": [
        {
          "internalType": "address",
          "name": "account",
          "type": "address"
        }
      ],
      "name": "removeVoter",
      "outputs": [],
      "stateMutability": "nonpayable",
      "type": "function"
    },
    {
      "inputs": [
        {
          "internalType": "bytes32",
          "name": "role",
          "type": "bytes32"
        },
        {
          "internalType": "address",
          "name": "callerConfirmation",
          "type": "address"
        }
      ],
      "name": "renounceRole",
      "outputs": [],
      "stateMutability": "nonpayable",
      "type": "function"
    },
    {
      "inputs": [
        {
          "internalType": "bytes32",
          "name": "role",
          "type": "bytes32"
        },
        {
          "internalType": "address",
          "name": "account",
          "type": "address"
        }
      ],
      "name": "revokeRole",
      "outputs": [],
      "stateMutability": "nonpayable",
      "type": "function"
    },
    {
      "inputs": [
        {
          "internalType": "bytes4",
          "name": "interfaceId",
          "type": "bytes4"
        }
      ],
      "name": "supportsInterface",
      "outputs": [
        {
          "internalType": "bool",
          "name": "",
          "type": "bool"
        }
      ],
      "stateMutability": "view",
      "type": "function"
    }
  ],
  "bytecode": "0x6080346100e557601f61149038819003918201601f19168301916001600160401b038311848410176100ea578084926020946040528339810103126100e557516001600160a01b038116908181036100e55781156100a0578061006461006a92610100565b5061019e565b50604051907f286f82d2b1e37b5e9f33e455d014b4a5f6c29388e6e41e1281d4c83e04f42655600080a261121b90816102158239f35b60405162461bcd60e51b815260206004820152601b60248201527f496e76616c69642073757065722061646d696e206164647265737300000000006044820152606490fd5b600080fd5b634e487b7160e01b600052604160045260246000fd5b6001600160a01b0381166000908152600080516020611450833981519152602052604090205460ff16610198576001600160a01b0316600081815260008051602061145083398151915260205260408120805460ff191660011790553391907fd980155b32cf66e6af51e0972d64b9d5efe0e6f237dfaa4bdc83f990dd79e9c8906000805160206114308339815191529080a4600190565b50600090565b6001600160a01b0381166000908152600080516020611470833981519152602052604090205460ff16610198576001600160a01b0316600081815260008051602061147083398151915260205260408120805460ff191660011790553391906000805160206114308339815191528180a460019056fe608080604052600436101561001357600080fd5b60003560e01c90816301ffc9a7146109b1575080630a3a621314610928578063248a9ca3146109025780632f2ff15d146108d157806336568abe1461088b5780634902e4aa146107cb578063528f2c741461075257806352a1b036146107025780637282f837146106d957806377a0421e146106895780637c7c7c3c1461066057806386c1ff68146105ba5780638ebf2fd61461059157806391d1485414610544578063a217fddf14610528578063a7771ee3146104d8578063b23d5f521461040e578063b3292ff014610385578063d547741f1461034d578063da32347314610324578063df7f453b146102d4578063f49e6696146101d75763f4ab9adf1461011c57600080fd5b346101d25760203660031901126101d257610135610a04565b336000908152600080516020611186833981519152602052604090205460ff1680156101ac575b61016590610aca565b6001600160a01b038116906101849061017f831515610a78565b610ccb565b507fa636f4a11e2d3ba7f89d042ecb0a6b886716e98cd49d8fd876ee0f73bced42b8600080a2005b50336000908152600080516020611146833981519152602052604090205460ff1661015c565b600080fd5b346101d25760203660031901126101d2576101f0610a04565b3360009081526000805160206111a6833981519152602052604090205460ff1680156102ae575b156102535761022581610f91565b506001600160a01b03166000805160206111068339815191526000805160206110e6833981519152600080a3005b60405162461bcd60e51b815260206004820152602d60248201527f5265737472696374656420746f2053555045525f41444d494e206f7220454c4560448201526c21aa24a7a72fa6a0a720a3a2a960991b6064820152608490fd5b50336000908152600080516020611146833981519152602052604090205460ff16610217565b346101d25760203660031901126101d2576102ed610a04565b6001600160a01b031660009081526000805160206111a6833981519152602090815260409182902054915160ff9092161515825290f35b346101d25760003660031901126101d25760206040516000805160206110c68339815191528152f35b346101d25760403660031901126101d25761038360043561036c610a1a565b9061037e61037982610ab6565b610dca565b611015565b005b346101d25760203660031901126101d25761039e610a04565b3360009081526000805160206111a683398151915260205260409020546103c79060ff16610a30565b6001600160a01b038116906103e6906103e1831515610a78565b610c45565b507f286f82d2b1e37b5e9f33e455d014b4a5f6c29388e6e41e1281d4c83e04f42655600080a2005b346101d25760203660031901126101d257610427610a04565b336000908152600080516020611146833981519152602052604090205460ff1615610493576001600160a01b0381169061046b90610466831515610a78565b610bbf565b507f35b3345250cf16cde6a720d52feadf39ad5297ed679713859b179456e6d310f9600080a2005b60405162461bcd60e51b815260206004820152601e60248201527f5265737472696374656420746f20454c454354494f4e5f4d414e4147455200006044820152606490fd5b346101d25760203660031901126101d2576104f1610a04565b6001600160a01b03166000908152600080516020611166833981519152602090815260409182902054915160ff9092161515825290f35b346101d25760003660031901126101d257602060405160008152f35b346101d25760403660031901126101d25761055d610a1a565b600435600052600060205260406000209060018060a01b0316600052602052602060ff604060002054166040519015158152f35b346101d25760003660031901126101d25760206040516000805160206111c68339815191528152f35b346101d25760203660031901126101d2576105d3610a04565b336000908152600080516020611186833981519152602052604090205460ff16801561063a575b61060390610aca565b61060c81610f0d565b506001600160a01b03166000805160206111c68339815191526000805160206110e6833981519152600080a3005b50336000908152600080516020611146833981519152602052604090205460ff166105fa565b346101d25760003660031901126101d25760206040516000805160206110a68339815191528152f35b346101d25760203660031901126101d2576106a2610a04565b6001600160a01b03166000908152600080516020611146833981519152602090815260409182902054915160ff9092161515825290f35b346101d25760003660031901126101d25760206040516000805160206111068339815191528152f35b346101d25760203660031901126101d25761071b610a04565b6001600160a01b03166000908152600080516020611186833981519152602090815260409182902054915160ff9092161515825290f35b346101d25760203660031901126101d25761076b610a04565b3360009081526000805160206111a683398151915260205260409020546107949060ff16610a30565b61079d81610e89565b506001600160a01b03166000805160206110c68339815191526000805160206110e6833981519152600080a3005b346101d25760203660031901126101d2576107e4610a04565b3360009081526000805160206111a6833981519152602052604090205461080d9060ff16610a30565b6001600160a01b0381169033821461084d5761082890610e05565b506000805160206110a68339815191526000805160206110e6833981519152600080a3005b60405162461bcd60e51b815260206004820152601660248201527521b0b73737ba103932b6b7bb32903cb7bab939b2b63360511b6044820152606490fd5b346101d25760403660031901126101d2576108a4610a1a565b336001600160a01b038216036108c05761038390600435611015565b63334bd91960e11b60005260046000fd5b346101d25760403660031901126101d2576103836004356108f0610a1a565b906108fd61037982610ab6565b610d51565b346101d25760203660031901126101d2576020610920600435610ab6565b604051908152f35b346101d25760203660031901126101d257610941610a04565b3360009081526000805160206111a6833981519152602052604090205461096a9060ff16610a30565b6001600160a01b0381169061098990610984831515610a78565b610b33565b507fc9bfe33400fd8f8c3aee3f6c101d9b296dc646f1fbbeda77cb4e0c7bf5f8e786600080a2005b346101d25760203660031901126101d2576004359063ffffffff60e01b82168092036101d257602091637965db0b60e01b81149081156109f3575b5015158152f35b6301ffc9a760e01b149050836109ec565b600435906001600160a01b03821682036101d257565b602435906001600160a01b03821682036101d257565b15610a3757565b60405162461bcd60e51b81526020600482015260196024820152782932b9ba3934b1ba32b2103a379029aaa822a92fa0a226a4a760391b6044820152606490fd5b15610a7f57565b60405162461bcd60e51b815260206004820152600f60248201526e496e76616c6964206164647265737360881b6044820152606490fd5b600052600060205260016040600020015490565b15610ad157565b60405162461bcd60e51b815260206004820152603460248201527f5265737472696374656420746f20454c454354494f4e5f415554484f524954596044820152731037b91022a622a1aa24a7a72fa6a0a720a3a2a960611b6064820152608490fd5b6001600160a01b0381166000908152600080516020611146833981519152602052604090205460ff16610bb9576001600160a01b0316600081815260008051602061114683398151915260205260408120805460ff191660011790553391906000805160206110c6833981519152906000805160206110868339815191529080a4600190565b50600090565b6001600160a01b0381166000908152600080516020611186833981519152602052604090205460ff16610bb9576001600160a01b0316600081815260008051602061118683398151915260205260408120805460ff19166001179055339190600080516020611106833981519152906000805160206110868339815191529080a4600190565b6001600160a01b03811660009081526000805160206111a6833981519152602052604090205460ff16610bb9576001600160a01b031660008181526000805160206111a683398151915260205260408120805460ff191660011790553391906000805160206110a6833981519152906000805160206110868339815191529080a4600190565b6001600160a01b0381166000908152600080516020611166833981519152602052604090205460ff16610bb9576001600160a01b0316600081815260008051602061116683398151915260205260408120805460ff191660011790553391906000805160206111c6833981519152906000805160206110868339815191529080a4600190565b6000818152602081815260408083206001600160a01b038616845290915290205460ff16610dc3576000818152602081815260408083206001600160a01b0395909516808452949091528120805460ff19166001179055339291906000805160206110868339815191529080a4600190565b5050600090565b60008181526020818152604080832033845290915290205460ff1615610ded5750565b63e2517d3f60e01b6000523360045260245260446000fd5b6001600160a01b03811660009081526000805160206111a6833981519152602052604090205460ff1615610bb9576001600160a01b031660008181526000805160206111a683398151915260205260408120805460ff191690553391906000805160206110a6833981519152906000805160206111268339815191529080a4600190565b6001600160a01b0381166000908152600080516020611146833981519152602052604090205460ff1615610bb9576001600160a01b0316600081815260008051602061114683398151915260205260408120805460ff191690553391906000805160206110c6833981519152906000805160206111268339815191529080a4600190565b6001600160a01b0381166000908152600080516020611166833981519152602052604090205460ff1615610bb9576001600160a01b0316600081815260008051602061116683398151915260205260408120805460ff191690553391906000805160206111c6833981519152906000805160206111268339815191529080a4600190565b6001600160a01b0381166000908152600080516020611186833981519152602052604090205460ff1615610bb9576001600160a01b0316600081815260008051602061118683398151915260205260408120805460ff19169055339190600080516020611106833981519152906000805160206111268339815191529080a4600190565b6000818152602081815260408083206001600160a01b038616845290915290205460ff1615610dc3576000818152602081815260408083206001600160a01b0395909516808452949091528120805460ff19169055339291906000805160206111268339815191529080a460019056fe2f8788117e7eff1d82e926ec794901d17c78024a50270940304540a733656f0dd980155b32cf66e6af51e0972d64b9d5efe0e6f237dfaa4bdc83f990dd79e9c88d6d2bf951a56eea8e2175f784a19fc077c73932022a49080fdd66dfab4e8085386d9cbd39c6982fff442b5b01ad1d6d816ae1aaf10be0bfb45e8c19d25fc7cdf5480e9736a584851c3186ddc87554e2ec3867718e6bd3397942e04e239f44aef6391f5c32d9c69d2a47ea670b442974b53935d1edc7fd64eb21e047a839171b348842b721eea8123e7577b999a3e9a4b83170d42dfe26a90a930bc991a04082764eb224bed3d76c9922daaa573e39c9f5a1a3c42f71c3eba844e58b55a9214559e1806bbf96119b8789f582b80ac48a982f17cf6e629de787e021d04fbe80b3fc451a8f7335ecf675ebfa7cac8ba749d6c6f0eb8a9ade98aa31e7a9d8eb302615283fd96aa656c9df35ac2fcb112678a5f24f1ca97e591a97d1d16003dbfc9ca2646970667358221220e45e99f63afd6dca6304367513f5d6e17f1d690936ffb3b365f3c757d088ec7d64736f6c634300081c00332f8788117e7eff1d82e926ec794901d17c78024a50270940304540a733656f0dfc451a8f7335ecf675ebfa7cac8ba749d6c6f0eb8a9ade98aa31e7a9d8eb3026ad3228b676f7d3cd4284a5443f17f1962b36e491b30a40b2405849e597ba5fb5",
  "linkReferences": {},
  "deployedLinkReferences": {}
}